{
  "contractName": "AgriculturalSupplyChain",
  "abi": [
    {
      "inputs": [],
      "stateMutability": "nonpayable",
      "type": "constructor"
    },
    {
      "anonymous": false,
      "inputs": [
        {
          "indexed": false,
          "internalType": "uint256",
          "name": "productId",
          "type": "uint256"
        },
        {
          "indexed": false,
          "internalType": "address",
          "name": "previousOwner",
          "type": "address"
        },
        {
          "indexed": false,
          "internalType": "address",
          "name": "newOwner",
          "type": "address"
        }
      ],
      "name": "OwnershipTransferred",
      "type": "event"
    },
    {
      "anonymous": false,
      "inputs": [
        {
          "indexed": false,
          "internalType": "uint256",
          "name": "productId",
          "type": "uint256"
        },
        {
          "indexed": false,
          "internalType": "uint256",
          "name": "price",
          "type": "uint256"
        }
      ],
      "name": "ProductForSale",
      "type": "event"
    },
    {
      "anonymous": false,
      "inputs": [
        {
          "indexed": false,
          "internalType": "uint256",
          "name": "productId",
          "type": "uint256"
        },
        {
          "indexed": false,
          "internalType": "string",
          "name": "productName",
          "type": "string"
        },
        {
          "indexed": false,
          "internalType": "string",
          "name": "farmerName",
          "type": "string"
        }
      ],
      "name": "ProductHarvested",
      "type": "event"
    },
    {
      "anonymous": false,
      "inputs": [
        {
          "indexed": false,
          "internalType": "uint256",
          "name": "productId",
          "type": "uint256"
        },
        {
          "indexed": false,
          "internalType": "enum AgriculturalSupplyChain.ProductStatus",
          "name": "newStatus",
          "type": "uint8"
        },
        {
          "indexed": false,
          "internalType": "address",
          "name": "updatedBy",
          "type": "address"
        }
      ],
      "name": "StatusUpdated",
      "type": "event"
    },
    {
      "inputs": [
        {
          "internalType": "address",
          "name": "",
          "type": "address"
        }
      ],
      "name": "authorizedUsers",
      "outputs": [
        {
          "internalType": "bool",
          "name": "",
          "type": "bool"
        }
      ],
      "stateMutability": "view",
      "type": "function"
    },
    {
      "inputs": [],
      "name": "owner",
      "outputs": [
        {
          "internalType": "address",
          "name": "",
          "type": "address"
        }
      ],
      "stateMutability": "view",
      "type": "function"
    },
    {
      "inputs": [],
      "name": "productCount",
      "outputs": [
        {
          "internalType": "uint256",
          "name": "",
          "type": "uint256"
        }
      ],
      "stateMutability": "view",
      "type": "function"
    },
    {
      "inputs": [
        {
          "internalType": "uint256",
          "name": "",
          "type": "uint256"
        }
      ],
      "name": "products",
      "outputs": [
        {
          "internalType": "uint256",
          "name": "productId",
          "type": "uint256"
        },
        {
          "internalType": "string",
          "name": "productName",
          "type": "string"
        },
        {
          "internalType": "string",
          "name": "farmerName",
          "type": "string"
        },
        {
          "internalType": "string",
          "name": "farmLocation",
          "type": "string"
        },
        {
          "internalType": "uint256",
          "name": "harvestDate",
          "type": "uint256"
        },
        {
          "internalType": "enum AgriculturalSupplyChain.ProductStatus",
          "name": "status",
          "type": "uint8"
        },
        {
          "internalType": "address",
          "name": "currentOwner",
          "type": "address"
        },
        {
          "internalType": "uint256",
          "name": "price",
          "type": "uint256"
        },
        {
          "internalType": "bool",
          "name": "isForSale",
          "type": "bool"
        }
      ],
      "stateMutability": "view",
      "type": "function"
    },
    {
      "inputs": [
        {
          "internalType": "address",
          "name": "_user",
          "type": "address"
        }
      ],
      "name": "authorizeUser",
      "outputs": [],
      "stateMutability": "nonpayable",
      "type": "function"
    },
    {
      "inputs": [
        {
          "internalType": "address",
          "name": "_user",
          "type": "address"
        }
      ],
      "name": "revokeAuthorization",
      "outputs": [],
      "stateMutability": "nonpayable",
      "type": "function"
    },
    {
      "inputs": [
        {
          "internalType": "string",
          "name": "_productName",
          "type": "string"
        },
        {
          "internalType": "string",
          "name": "_farmerName",
          "type": "string"
        },
        {
          "internalType": "string",
          "name": "_farmLocation",
          "type": "string"
        },
        {
          "internalType": "uint256",
          "name": "_harvestDate",
          "type": "uint256"
        }
      ],
      "name": "harvestProduct",
      "outputs": [
        {
          "internalType": "uint256",
          "name": "",
          "type": "uint256"
        }
      ],
      "stateMutability": "nonpayable",
      "type": "function"
    },
    {
      "inputs": [
        {
          "internalType": "uint256",
          "name": "_productId",
          "type": "uint256"
        },
        {
          "internalType": "enum AgriculturalSupplyChain.ProductStatus",
          "name": "_newStatus",
          "type": "uint8"
        }
      ],
      "name": "updateStatus",
      "outputs": [],
      "stateMutability": "nonpayable",
      "type": "function"
    },
    {
      "inputs": [
        {
          "internalType": "uint256",
          "name": "_productId",
          "type": "uint256"
        },
        {
          "internalType": "uint256",
          "name": "_price",
          "type": "uint256"
        }
      ],
      "name": "putProductForSale",
      "outputs": [],
      "stateMutability": "nonpayable",
      "type": "function"
    },
    {
      "inputs": [
        {
          "internalType": "uint256",
          "name": "_productId",
          "type": "uint256"
        }
      ],
      "name": "purchaseProduct",
      "outputs": [],
      "stateMutability": "payable",
      "type": "function"
    },
    {
      "inputs": [
        {
          "internalType": "uint256",
          "name": "_productId",
          "type": "uint256"
        }
      ],
      "name": "getProductName",
      "outputs": [
        {
          "internalType": "string",
          "name": "",
          "type": "string"
        }
      ],
      "stateMutability": "view",
      "type": "function"
    },
    {
      "inputs": [
        {
          "internalType": "uint256",
          "name": "_productId",
          "type": "uint256"
        }
      ],
      "name": "getProductFarmer",
      "outputs": [
        {
          "internalType": "string",
          "name": "",
          "type": "string"
        }
      ],
      "stateMutability": "view",
      "type": "function"
    },
    {
      "inputs": [
        {
          "internalType": "uint256",
          "name": "_productId",
          "type": "uint256"
        }
      ],
      "name": "getProductLocation",
      "outputs": [
        {
          "internalType": "string",
          "name": "",
          "type": "string"
        }
      ],
      "stateMutability": "view",
      "type": "function"
    },
    {
      "inputs": [
        {
          "internalType": "uint256",
          "name": "_productId",
          "type": "uint256"
        }
      ],
      "name": "getProductHarvestDate",
      "outputs": [
        {
          "internalType": "uint256",
          "name": "",
          "type": "uint256"
        }
      ],
      "stateMutability": "view",
      "type": "function"
    },
    {
      "inputs": [
        {
          "internalType": "uint256",
          "name": "_productId",
          "type": "uint256"
        }
      ],
      "name": "getProductStatus",
      "outputs": [
        {
          "internalType": "enum AgriculturalSupplyChain.ProductStatus",
          "name": "",
          "type": "uint8"
        }
      ],
      "stateMutability": "view",
      "type": "function"
    },
    {
      "inputs": [
        {
          "internalType": "uint256",
          "name": "_productId",
          "type": "uint256"
        }
      ],
      "name": "getProductOwner",
      "outputs": [
        {
          "internalType": "address",
          "name": "",
          "type": "address"
        }
      ],
      "stateMutability": "view",
      "type": "function"
    },
    {
      "inputs": [
        {
          "internalType": "uint256",
          "name": "_productId",
          "type": "uint256"
        }
      ],
      "name": "getProductPrice",
      "outputs": [
        {
          "internalType": "uint256",
          "name": "",
          "type": "uint256"
        }
      ],
      "stateMutability": "view",
      "type": "function"
    },
    {
      "inputs": [
        {
          "internalType": "uint256",
          "name": "_productId",
          "type": "uint256"
        }
      ],
      "name": "getProductForSaleStatus",
      "outputs": [
        {
          "internalType": "bool",
          "name": "",
          "type": "bool"
        }
      ],
      "stateMutability": "view",
      "type": "function"
    },
    {
      "inputs": [],
      "name": "getProductCount",
      "outputs": [
        {
          "internalType": "uint256",
          "name": "",
          "type": "uint256"
        }
      ],
      "stateMutability": "view",
      "type": "function"
    },
    {
      "inputs": [],
      "name": "getAllProductIds",
      "outputs": [
        {
          "internalType": "uint256[]",
          "name": "",
          "type": "uint256[]"
        }
      ],
      "stateMutability": "view",
      "type": "function"
    },
    {
      "inputs": [
        {
          "internalType": "address",
          "name": "_owner",
          "type": "address"
        }
      ],
      "name": "getProductsByOwner",
      "outputs": [
        {
          "internalType": "uint256[]",
          "name": "",
          "type": "uint256[]"
        }
      ],
      "stateMutability": "view",
      "type": "function"
    },
    {
      "inputs": [
        {
          "internalType": "uint256",
          "name": "_productId",
          "type": "uint256"
        }
      ],
      "name": "getProductDetails",
      "outputs": [
        {
          "internalType": "uint256",
          "name": "productId",
          "type": "uint256"
        },
        {
          "internalType": "string",
          "name": "productName",
          "type": "string"
        },
        {
          "internalType": "string",
          "name": "farmerName",
          "type": "string"
        },
        {
          "internalType": "string",
          "name": "farmLocation",
          "type": "string"
        },
        {
          "internalType": "uint256",
          "name": "harvestDate",
          "type": "uint256"
        },
        {
          "internalType": "enum AgriculturalSupplyChain.ProductStatus",
          "name": "status",
          "type": "uint8"
        },
        {
          "internalType": "address",
          "name": "currentOwner",
          "type": "address"
        },
        {
          "internalType": "uint256",
          "name": "price",
          "type": "uint256"
        },
        {
          "internalType": "bool",
          "name": "isForSale",
          "type": "bool"
        }
      ],
      "stateMutability": "view",
      "type": "function"
    }
  ],
  "bytecode": "0x608060405234801561001057600080fd5b50600080546001600160a01b03191633908117825560038290558152600260205260409020805460ff19166001179055611b4b8061004f6000396000f3fe6080604052600436106101355760003560e01c80637acc0b20116100ab578063b48028e31161006f578063b48028e31461037a578063c1bea7321461039a578063e0f6ef87146103ba578063e7bf7dfc146103cf578063ec333e29146103ef578063fe542c9b1461040f57610135565b80637acc0b20146102d857806388ad4ab5146102f85780638da5cb5b1461031857806398be23f71461033a5780639e62e7951461035a57610135565b80633a1b3d31116100fd5780633a1b3d311461020c5780634a348da91461022c578063526c2d6b1461024e578063663c01af1461026e57806367c2a360146102835780636813b53b146102a357610135565b80630fecef481461013a57806313f6b1bb146101705780631828983a1461019d57806338e76a03146101ca578063390a98df146101df575b600080fd5b34801561014657600080fd5b5061015a610155366004611577565b61042f565b604051610167919061171d565b60405180910390f35b34801561017c57600080fd5b5061019061018b366004611631565b61056d565b604051610167919061176c565b3480156101a957600080fd5b506101bd6101b8366004611577565b6105c5565b6040516101679190611761565b6101dd6101d8366004611631565b6105da565b005b3480156101eb57600080fd5b506101ff6101fa366004611631565b6107d1565b6040516101679190611780565b34801561021857600080fd5b506101dd610227366004611649565b6108a4565b34801561023857600080fd5b506102416109da565b604051610167919061194e565b34801561025a57600080fd5b506101bd610269366004611631565b6109e0565b34801561027a57600080fd5b5061015a610a2b565b34801561028f57600080fd5b506101dd61029e366004611577565b610adf565b3480156102af57600080fd5b506102c36102be366004611631565b610b2d565b604051610167999897969594939291906119d8565b3480156102e457600080fd5b506102c36102f3366004611631565b610d88565b34801561030457600080fd5b50610241610313366004611631565b610f77565b34801561032457600080fd5b5061032d610fbf565b6040516101679190611709565b34801561034657600080fd5b506101dd61035536600461167b565b610fce565b34801561036657600080fd5b506101ff610375366004611631565b6110d9565b34801561038657600080fd5b506101dd610395366004611577565b611127565b3480156103a657600080fd5b506102416103b53660046115a5565b611172565b3480156103c657600080fd5b5061024161136c565b3480156103db57600080fd5b506102416103ea366004611631565b611372565b3480156103fb57600080fd5b506101ff61040a366004611631565b6113ba565b34801561041b57600080fd5b5061032d61042a366004611631565b611407565b6060600060015b6003548111610489576000818152600160205260409020600501546001600160a01b03858116610100909204161415610477578161047381611ace565b9250505b8061048181611ace565b915050610436565b5060008167ffffffffffffffff8111156104b357634e487b7160e01b600052604160045260246000fd5b6040519080825280602002602001820160405280156104dc578160200160208202803683370190505b509050600060015b6003548111610563576000818152600160205260409020600501546001600160a01b03878116610100909204161415610551578083838151811061053857634e487b7160e01b600052603260045260246000fd5b60209081029190910101528161054d81611ace565b9250505b8061055b81611ace565b9150506104e4565b5090949350505050565b60008160008111801561058257506003548111155b6105a75760405162461bcd60e51b815260040161059e90611793565b60405180910390fd5b60008381526001602052604090206005015460ff1691505b50919050565b60026020526000908152604090205460ff1681565b806000811180156105ed57506003548111155b6106095760405162461bcd60e51b815260040161059e90611793565b6000828152600160205260409020600781015460ff1661063b5760405162461bcd60e51b815260040161059e90611878565b806006015434101561065f5760405162461bcd60e51b815260040161059e9061184a565b600581015461010090046001600160a01b03163314156106915760405162461bcd60e51b815260040161059e90611919565b600581015460068201546040516101009092046001600160a01b03169182916108fc811502916000818181858888f193505050501580156106d6573d6000803e3d6000fd5b50816006015434111561072257600682015433906108fc906106f89034611a82565b6040518115909202916000818181858888f19350505050158015610720573d6000803e3d6000fd5b505b60058201805460078401805460ff1990811690915561010033908102610100600160a81b0319909316929092171660049081179092556040517f16ad05ce3d778c4a2ba55f55814ad9f3e606fe0c042972def94655ed8e1c31cc92610788928892611976565b60405180910390a17f16b85f49bf01212961345d3016c9a531894accf62eb7680f2045d79185cc0ec08482336040516107c393929190611957565b60405180910390a150505050565b6060816000811180156107e657506003548111155b6108025760405162461bcd60e51b815260040161059e90611793565b6000838152600160205260409020600201805461081e90611a99565b80601f016020809104026020016040519081016040528092919081815260200182805461084a90611a99565b80156108975780601f1061086c57610100808354040283529160200191610897565b820191906000526020600020905b81548152906001019060200180831161087a57829003601f168201915b5050505050915050919050565b3360009081526002602052604090205460ff16806108cc57506000546001600160a01b031633145b6108e85760405162461bcd60e51b815260040161059e906118f1565b816000811180156108fb57506003548111155b6109175760405162461bcd60e51b815260040161059e90611793565b6000838152600160205260409020600581015461010090046001600160a01b031633146109565760405162461bcd60e51b815260040161059e90611806565b60058101805484919060ff1916600183600781111561098557634e487b7160e01b600052602160045260246000fd5b0217905550600581018054610100600160a81b031916336101008102919091179091556040517f16ad05ce3d778c4a2ba55f55814ad9f3e606fe0c042972def94655ed8e1c31cc916107c39187918791611976565b60035490565b6000816000811180156109f557506003548111155b610a115760405162461bcd60e51b815260040161059e90611793565b505060009081526001602052604090206007015460ff1690565b6060600060035467ffffffffffffffff811115610a5857634e487b7160e01b600052604160045260246000fd5b604051908082528060200260200182016040528015610a81578160200160208202803683370190505b50905060005b600354811015610ad957610a9c816001611a6a565b828281518110610abc57634e487b7160e01b600052603260045260246000fd5b602090810291909101015280610ad181611ace565b915050610a87565b50905090565b6000546001600160a01b03163314610b095760405162461bcd60e51b815260040161059e906118af565b6001600160a01b03166000908152600260205260409020805460ff19166001179055565b60006060806060600080600080600089600081118015610b4f57506003548111155b610b6b5760405162461bcd60e51b815260040161059e90611793565b60008b815260016020819052604090912080546004820154600583015460068401546007850154958501805495969495909460028801946003890194909360ff808316946101009093046001600160a01b03169391929116908890610bcf90611a99565b80601f0160208091040260200160405190810160405280929190818152602001828054610bfb90611a99565b8015610c485780601f10610c1d57610100808354040283529160200191610c48565b820191906000526020600020905b815481529060010190602001808311610c2b57829003601f168201915b50505050509750868054610c5b90611a99565b80601f0160208091040260200160405190810160405280929190818152602001828054610c8790611a99565b8015610cd45780601f10610ca957610100808354040283529160200191610cd4565b820191906000526020600020905b815481529060010190602001808311610cb757829003601f168201915b50505050509650858054610ce790611a99565b80601f0160208091040260200160405190810160405280929190818152602001828054610d1390611a99565b8015610d605780601f10610d3557610100808354040283529160200191610d60565b820191906000526020600020905b815481529060010190602001808311610d4357829003601f168201915b505050505095509a509a509a509a509a509a509a509a509a5050509193959799909294969850565b600160208190526000918252604090912080549181018054610da990611a99565b80601f0160208091040260200160405190810160405280929190818152602001828054610dd590611a99565b8015610e225780601f10610df757610100808354040283529160200191610e22565b820191906000526020600020905b815481529060010190602001808311610e0557829003601f168201915b505050505090806002018054610e3790611a99565b80601f0160208091040260200160405190810160405280929190818152602001828054610e6390611a99565b8015610eb05780601f10610e8557610100808354040283529160200191610eb0565b820191906000526020600020905b815481529060010190602001808311610e9357829003601f168201915b505050505090806003018054610ec590611a99565b80601f0160208091040260200160405190810160405280929190818152602001828054610ef190611a99565b8015610f3e5780601f10610f1357610100808354040283529160200191610f3e565b820191906000526020600020905b815481529060010190602001808311610f2157829003601f168201915b505050506004830154600584015460068501546007909501549394919360ff80831694506101009092046001600160a01b031692911689565b600081600081118015610f8c57506003548111155b610fa85760405162461bcd60e51b815260040161059e90611793565b505060009081526001602052604090206004015490565b6000546001600160a01b031681565b3360009081526002602052604090205460ff1680610ff657506000546001600160a01b031633145b6110125760405162461bcd60e51b815260040161059e906118f1565b8160008111801561102557506003548111155b6110415760405162461bcd60e51b815260040161059e90611793565b6000838152600160205260409020600581015461010090046001600160a01b031633146110805760405162461bcd60e51b815260040161059e906117c3565b6006810183905560078101805460ff1990811660011790915560058201805490911660031790556040517fc3eb1b6e5a24b4199477283308be14b84e8cd3774f2d107efe98f33751a73171906107c39086908690611a5c565b6060816000811180156110ee57506003548111155b61110a5760405162461bcd60e51b815260040161059e90611793565b600083815260016020819052604090912001805461081e90611a99565b6000546001600160a01b031633146111515760405162461bcd60e51b815260040161059e906118af565b6001600160a01b03166000908152600260205260409020805460ff19169055565b3360009081526002602052604081205460ff168061119a57506000546001600160a01b031633145b6111b65760405162461bcd60e51b815260040161059e906118f1565b600380549060006111c683611ace565b919050555060405180610120016040528060035481526020018681526020018581526020018481526020018381526020016000600781111561121857634e487b7160e01b600052602160045260246000fd5b8152336020808301919091526000604080840182905260609093018190526003548152600180835292902083518155838201518051919361125f939085019291019061145d565b506040820151805161127b91600284019160209091019061145d565b506060820151805161129791600384019160209091019061145d565b506080820151600482015560a082015160058201805460ff191660018360078111156112d357634e487b7160e01b600052602160045260246000fd5b021790555060c0820151600582018054610100600160a81b0319166101006001600160a01b03909316830217905560e08301516006830155909101516007909101805460ff19169115159190911790556003546040517f28f1e74f5920fb068ca2e402f32e2e131d5211f088f5e541cf746fcd2b3e66519161135891889088906119a3565b60405180910390a150600354949350505050565b60035481565b60008160008111801561138757506003548111155b6113a35760405162461bcd60e51b815260040161059e90611793565b505060009081526001602052604090206006015490565b6060816000811180156113cf57506003548111155b6113eb5760405162461bcd60e51b815260040161059e90611793565b6000838152600160205260409020600301805461081e90611a99565b60008160008111801561141c57506003548111155b6114385760405162461bcd60e51b815260040161059e90611793565b505060009081526001602052604090206005015461010090046001600160a01b031690565b82805461146990611a99565b90600052602060002090601f01602090048101928261148b57600085556114d1565b82601f106114a457805160ff19168380011785556114d1565b828001600101855582156114d1579182015b828111156114d15782518255916020019190600101906114b6565b506114dd9291506114e1565b5090565b5b808211156114dd57600081556001016114e2565b600082601f830112611506578081fd5b813567ffffffffffffffff8082111561152157611521611aff565b604051601f8301601f19168101602001828111828210171561154557611545611aff565b60405282815284830160200186101561155c578384fd5b82602086016020830137918201602001929092529392505050565b600060208284031215611588578081fd5b81356001600160a01b038116811461159e578182fd5b9392505050565b600080600080608085870312156115ba578283fd5b843567ffffffffffffffff808211156115d1578485fd5b6115dd888389016114f6565b955060208701359150808211156115f2578485fd5b6115fe888389016114f6565b94506040870135915080821115611613578384fd5b50611620878288016114f6565b949793965093946060013593505050565b600060208284031215611642578081fd5b5035919050565b6000806040838503121561165b578182fd5b82359150602083013560088110611670578182fd5b809150509250929050565b6000806040838503121561168d578182fd5b50508035926020909101359150565b600881106116ba57634e487b7160e01b600052602160045260246000fd5b9052565b60008151808452815b818110156116e3576020818501810151868301820152016116c7565b818111156116f45782602083870101525b50601f01601f19169290920160200192915050565b6001600160a01b0391909116815260200190565b6020808252825182820181905260009190848201906040850190845b8181101561175557835183529284019291840191600101611739565b50909695505050505050565b901515815260200190565b6020810161177a828461169c565b92915050565b60006020825261159e60208301846116be565b602080825260169082015275141c9bd91d58dd08191bd95cc81b9bdd08195e1a5cdd60521b604082015260600190565b60208082526023908201527f4f6e6c79206f776e65722063616e207075742070726f6475637420666f722073604082015262616c6560e81b606082015260800190565b60208082526024908201527f4f6e6c792063757272656e74206f776e65722063616e207570646174652073746040820152636174757360e01b606082015260800190565b602080825260149082015273125b9cdd59999a58da595b9d081c185e5b595b9d60621b604082015260600190565b60208082526017908201527f50726f64756374206973206e6f7420666f722073616c65000000000000000000604082015260600190565b60208082526022908201527f4f6e6c79206f776e65722063616e20706572666f726d2074686973206163746960408201526137b760f11b606082015260800190565b6020808252600e908201526d139bdd08185d5d1a1bdc9a5e995960921b604082015260600190565b6020808252818101527f43616e6e6f7420707572636861736520796f7572206f776e2070726f64756374604082015260600190565b90815260200190565b9283526001600160a01b03918216602084015216604082015260600190565b8381526060810161198a602083018561169c565b6001600160a01b03929092166040919091015292915050565b6000848252606060208301526119bc60608301856116be565b82810360408401526119ce81856116be565b9695505050505050565b60006101208b83528060208401526119f28184018c6116be565b90508281036040840152611a06818b6116be565b90508281036060840152611a1a818a6116be565b915050866080830152611a3060a083018761169c565b6001600160a01b039490941660c082015260e08101929092521515610100909101529695505050505050565b918252602082015260400190565b60008219821115611a7d57611a7d611ae9565b500190565b600082821015611a9457611a94611ae9565b500390565b600281046001821680611aad57607f821691505b602082108114156105bf57634e487b7160e01b600052602260045260246000fd5b6000600019821415611ae257611ae2611ae9565b5060010190565b634e487b7160e01b600052601160045260246000fd5b634e487b7160e01b600052604160045260246000fdfea2646970667358221220cf7b0449c4fd3b828034debeee8dbfbdfeddfc163e009907bdc436a42b99337a64736f6c63430008000033",
  "immutableReferences": {},
  "source": "// SPDX-License-Identifier: MIT\r\npragma solidity ^0.8.0;\r\n\r\ncontract AgriculturalSupplyChain {\r\n    address public owner;\r\n    \r\n    enum ProductStatus { \r\n        Harvested, \r\n        Processed, \r\n        Packed, \r\n        ForSale, \r\n        Sold, \r\n        Shipped, \r\n        Received, \r\n        Purchased \r\n    }\r\n    \r\n    struct Product {\r\n        uint productId;\r\n        string productName;\r\n        string farmerName;\r\n        string farmLocation;\r\n        uint256 harvestDate;\r\n        ProductStatus status;\r\n        address currentOwner;\r\n        uint256 price;\r\n        bool isForSale;\r\n    }\r\n    \r\n    mapping(uint => Product) public products;\r\n    mapping(address => bool) public authorizedUsers;\r\n    uint public productCount;\r\n    \r\n    event ProductHarvested(uint productId, string productName, string farmerName);\r\n    event StatusUpdated(uint productId, ProductStatus newStatus, address updatedBy);\r\n    event ProductForSale(uint productId, uint256 price);\r\n    event OwnershipTransferred(uint productId, address previousOwner, address newOwner);\r\n    \r\n    modifier onlyOwner() {\r\n        require(msg.sender == owner, \"Only owner can perform this action\");\r\n        _;\r\n    }\r\n    \r\n    modifier onlyAuthorized() {\r\n        require(authorizedUsers[msg.sender] || msg.sender == owner, \"Not authorized\");\r\n        _;\r\n    }\r\n    \r\n    modifier productExists(uint _productId) {\r\n        require(_productId > 0 && _productId <= productCount, \"Product does not exist\");\r\n        _;\r\n    }\r\n    \r\n    constructor() {\r\n        owner = msg.sender;\r\n        productCount = 0;\r\n        authorizedUsers[msg.sender] = true;\r\n    }\r\n    \r\n    function authorizeUser(address _user) public onlyOwner {\r\n        authorizedUsers[_user] = true;\r\n    }\r\n    \r\n    function revokeAuthorization(address _user) public onlyOwner {\r\n        authorizedUsers[_user] = false;\r\n    }\r\n    \r\n    function harvestProduct(\r\n        string memory _productName,\r\n        string memory _farmerName,\r\n        string memory _farmLocation,\r\n        uint256 _harvestDate\r\n    ) public onlyAuthorized returns (uint) {\r\n        productCount++;\r\n        \r\n        products[productCount] = Product({\r\n            productId: productCount,\r\n            productName: _productName,\r\n            farmerName: _farmerName,\r\n            farmLocation: _farmLocation,\r\n            harvestDate: _harvestDate,\r\n            status: ProductStatus.Harvested,\r\n            currentOwner: msg.sender,\r\n            price: 0,\r\n            isForSale: false\r\n        });\r\n        \r\n        emit ProductHarvested(productCount, _productName, _farmerName);\r\n        return productCount;\r\n    }\r\n    \r\n    function updateStatus(uint _productId, ProductStatus _newStatus) \r\n        public \r\n        onlyAuthorized \r\n        productExists(_productId) \r\n    {\r\n        Product storage product = products[_productId];\r\n        require(msg.sender == product.currentOwner, \"Only current owner can update status\");\r\n        \r\n        product.status = _newStatus;\r\n        product.currentOwner = msg.sender;\r\n        \r\n        emit StatusUpdated(_productId, _newStatus, msg.sender);\r\n    }\r\n    \r\n    function putProductForSale(uint _productId, uint256 _price) \r\n        public \r\n        onlyAuthorized \r\n        productExists(_productId) \r\n    {\r\n        Product storage product = products[_productId];\r\n        require(msg.sender == product.currentOwner, \"Only owner can put product for sale\");\r\n        \r\n        product.price = _price;\r\n        product.isForSale = true;\r\n        product.status = ProductStatus.ForSale;\r\n        \r\n        emit ProductForSale(_productId, _price);\r\n    }\r\n    \r\n    function purchaseProduct(uint _productId) public payable productExists(_productId) {\r\n        Product storage product = products[_productId];\r\n        require(product.isForSale, \"Product is not for sale\");\r\n        require(msg.value >= product.price, \"Insufficient payment\");\r\n        require(msg.sender != product.currentOwner, \"Cannot purchase your own product\");\r\n        \r\n        // Store previous owner before transfer\r\n        address previousOwner = product.currentOwner;\r\n        \r\n        // Transfer payment to current owner\r\n        payable(previousOwner).transfer(product.price);\r\n        \r\n        // Return excess payment\r\n        if (msg.value > product.price) {\r\n            payable(msg.sender).transfer(msg.value - product.price);\r\n        }\r\n        \r\n        // Transfer ownership\r\n        product.currentOwner = msg.sender;\r\n        product.isForSale = false;\r\n        product.status = ProductStatus.Sold;\r\n        \r\n        emit StatusUpdated(_productId, ProductStatus.Sold, msg.sender);\r\n        emit OwnershipTransferred(_productId, previousOwner, msg.sender);\r\n    }\r\n    \r\n    // Simple individual getters that won't cause stack issues\r\n    function getProductName(uint _productId) public view productExists(_productId) returns (string memory) {\r\n        return products[_productId].productName;\r\n    }\r\n    \r\n    function getProductFarmer(uint _productId) public view productExists(_productId) returns (string memory) {\r\n        return products[_productId].farmerName;\r\n    }\r\n    \r\n    function getProductLocation(uint _productId) public view productExists(_productId) returns (string memory) {\r\n        return products[_productId].farmLocation;\r\n    }\r\n    \r\n    function getProductHarvestDate(uint _productId) public view productExists(_productId) returns (uint256) {\r\n        return products[_productId].harvestDate;\r\n    }\r\n    \r\n    function getProductStatus(uint _productId) public view productExists(_productId) returns (ProductStatus) {\r\n        return products[_productId].status;\r\n    }\r\n    \r\n    function getProductOwner(uint _productId) public view productExists(_productId) returns (address) {\r\n        return products[_productId].currentOwner;\r\n    }\r\n    \r\n    function getProductPrice(uint _productId) public view productExists(_productId) returns (uint256) {\r\n        return products[_productId].price;\r\n    }\r\n    \r\n    function getProductForSaleStatus(uint _productId) public view productExists(_productId) returns (bool) {\r\n        return products[_productId].isForSale;\r\n    }\r\n    \r\n    function getProductCount() public view returns (uint) {\r\n        return productCount;\r\n    }\r\n    \r\n    function getAllProductIds() public view returns (uint[] memory) {\r\n        uint[] memory allProducts = new uint[](productCount);\r\n        \r\n        for (uint i = 0; i < productCount; i++) {\r\n            allProducts[i] = i + 1;\r\n        }\r\n        \r\n        return allProducts;\r\n    }\r\n    \r\n    function getProductsByOwner(address _owner) public view returns (uint[] memory) {\r\n        uint count = 0;\r\n        \r\n        // First, count how many products this owner has\r\n        for (uint i = 1; i <= productCount; i++) {\r\n            if (products[i].currentOwner == _owner) {\r\n                count++;\r\n            }\r\n        }\r\n        \r\n        // Then, create array and populate it\r\n        uint[] memory ownedProducts = new uint[](count);\r\n        uint index = 0;\r\n        \r\n        for (uint i = 1; i <= productCount; i++) {\r\n            if (products[i].currentOwner == _owner) {\r\n                ownedProducts[index] = i;\r\n                index++;\r\n            }\r\n        }\r\n        \r\n        return ownedProducts;\r\n    }\r\n    \r\n    // Additional function to get product details in a single call (if needed)\r\n    function getProductDetails(uint _productId) public view productExists(_productId) returns (\r\n        uint productId,\r\n        string memory productName,\r\n        string memory farmerName,\r\n        string memory farmLocation,\r\n        uint256 harvestDate,\r\n        ProductStatus status,\r\n        address currentOwner,\r\n        uint256 price,\r\n        bool isForSale\r\n    ) {\r\n        Product storage product = products[_productId];\r\n        return (\r\n            product.productId,\r\n            product.productName,\r\n            product.farmerName,\r\n            product.farmLocation,\r\n            product.harvestDate,\r\n            product.status,\r\n            product.currentOwner,\r\n            product.price,\r\n            product.isForSale\r\n        );\r\n    }\r\n}",
  "sourcePath": "D:\\SG_Ganche\\BE_Project\\contracts\\AgriculturalSupplyChain.sol",
  "compiler": {
    "name": "solc",
    "version": "0.8.0+commit.c7dfd78e.Emscripten.clang"
  },
  "schemaVersion": "3.4.16",
  "updatedAt": "2025-10-29T19:32:43.415Z",
  "devdoc": {
    "kind": "dev",
    "methods": {},
    "version": 1
  },
  "userdoc": {
    "kind": "user",
    "methods": {},
    "version": 1
  }
}